{"abi":[{"type":"function","name":"accountMarginSummary","inputs":[{"name":"perp_dex_index","type":"uint32","internalType":"uint32"},{"name":"user","type":"address","internalType":"address"}],"outputs":[{"name":"","type":"tuple","internalType":"struct L1Read.AccountMarginSummary","components":[{"name":"accountValue","type":"int64","internalType":"int64"},{"name":"marginUsed","type":"uint64","internalType":"uint64"},{"name":"ntlPos","type":"uint64","internalType":"uint64"},{"name":"rawUsd","type":"int64","internalType":"int64"}]}],"stateMutability":"view"},{"type":"function","name":"bbo","inputs":[{"name":"asset","type":"uint32","internalType":"uint32"}],"outputs":[{"name":"","type":"tuple","internalType":"struct L1Read.Bbo","components":[{"name":"bid","type":"uint64","internalType":"uint64"},{"name":"ask","type":"uint64","internalType":"uint64"}]}],"stateMutability":"view"},{"type":"function","name":"coreUserExists","inputs":[{"name":"user","type":"address","internalType":"address"}],"outputs":[{"name":"","type":"tuple","internalType":"struct L1Read.CoreUserExists","components":[{"name":"exists","type":"bool","internalType":"bool"}]}],"stateMutability":"view"},{"type":"function","name":"delegations","inputs":[{"name":"user","type":"address","internalType":"address"}],"outputs":[{"name":"","type":"tuple[]","internalType":"struct L1Read.Delegation[]","components":[{"name":"validator","type":"address","internalType":"address"},{"name":"amount","type":"uint64","internalType":"uint64"},{"name":"lockedUntilTimestamp","type":"uint64","internalType":"uint64"}]}],"stateMutability":"view"},{"type":"function","name":"delegatorSummary","inputs":[{"name":"user","type":"address","internalType":"address"}],"outputs":[{"name":"","type":"tuple","internalType":"struct L1Read.DelegatorSummary","components":[{"name":"delegated","type":"uint64","internalType":"uint64"},{"name":"undelegated","type":"uint64","internalType":"uint64"},{"name":"totalPendingWithdrawal","type":"uint64","internalType":"uint64"},{"name":"nPendingWithdrawals","type":"uint64","internalType":"uint64"}]}],"stateMutability":"view"},{"type":"function","name":"l1BlockNumber","inputs":[],"outputs":[{"name":"","type":"uint64","internalType":"uint64"}],"stateMutability":"view"},{"type":"function","name":"markPx","inputs":[{"name":"index","type":"uint32","internalType":"uint32"}],"outputs":[{"name":"","type":"uint64","internalType":"uint64"}],"stateMutability":"view"},{"type":"function","name":"oraclePx","inputs":[{"name":"index","type":"uint32","internalType":"uint32"}],"outputs":[{"name":"","type":"uint64","internalType":"uint64"}],"stateMutability":"view"},{"type":"function","name":"perpAssetInfo","inputs":[{"name":"perp","type":"uint32","internalType":"uint32"}],"outputs":[{"name":"","type":"tuple","internalType":"struct L1Read.PerpAssetInfo","components":[{"name":"coin","type":"string","internalType":"string"},{"name":"marginTableId","type":"uint32","internalType":"uint32"},{"name":"szDecimals","type":"uint8","internalType":"uint8"},{"name":"maxLeverage","type":"uint8","internalType":"uint8"},{"name":"onlyIsolated","type":"bool","internalType":"bool"}]}],"stateMutability":"view"},{"type":"function","name":"position","inputs":[{"name":"user","type":"address","internalType":"address"},{"name":"perp","type":"uint16","internalType":"uint16"}],"outputs":[{"name":"","type":"tuple","internalType":"struct L1Read.Position","components":[{"name":"szi","type":"int64","internalType":"int64"},{"name":"entryNtl","type":"uint64","internalType":"uint64"},{"name":"isolatedRawUsd","type":"int64","internalType":"int64"},{"name":"leverage","type":"uint32","internalType":"uint32"},{"name":"isIsolated","type":"bool","internalType":"bool"}]}],"stateMutability":"view"},{"type":"function","name":"spotBalance","inputs":[{"name":"user","type":"address","internalType":"address"},{"name":"token","type":"uint64","internalType":"uint64"}],"outputs":[{"name":"","type":"tuple","internalType":"struct L1Read.SpotBalance","components":[{"name":"total","type":"uint64","internalType":"uint64"},{"name":"hold","type":"uint64","internalType":"uint64"},{"name":"entryNtl","type":"uint64","internalType":"uint64"}]}],"stateMutability":"view"},{"type":"function","name":"spotInfo","inputs":[{"name":"spot","type":"uint32","internalType":"uint32"}],"outputs":[{"name":"","type":"tuple","internalType":"struct L1Read.SpotInfo","components":[{"name":"name","type":"string","internalType":"string"},{"name":"tokens","type":"uint64[2]","internalType":"uint64[2]"}]}],"stateMutability":"view"},{"type":"function","name":"spotPx","inputs":[{"name":"index","type":"uint32","internalType":"uint32"}],"outputs":[{"name":"","type":"uint64","internalType":"uint64"}],"stateMutability":"view"},{"type":"function","name":"tokenInfo","inputs":[{"name":"token","type":"uint32","internalType":"uint32"}],"outputs":[{"name":"","type":"tuple","internalType":"struct L1Read.TokenInfo","components":[{"name":"name","type":"string","internalType":"string"},{"name":"spots","type":"uint64[]","internalType":"uint64[]"},{"name":"deployerTradingFeeShare","type":"uint64","internalType":"uint64"},{"name":"deployer","type":"address","internalType":"address"},{"name":"evmContract","type":"address","internalType":"address"},{"name":"szDecimals","type":"uint8","internalType":"uint8"},{"name":"weiDecimals","type":"uint8","internalType":"uint8"},{"name":"evmExtraWeiDecimals","type":"int8","internalType":"int8"}]}],"stateMutability":"view"},{"type":"function","name":"tokenSupply","inputs":[{"name":"token","type":"uint32","internalType":"uint32"}],"outputs":[{"name":"","type":"tuple","internalType":"struct L1Read.TokenSupply","components":[{"name":"maxSupply","type":"uint64","internalType":"uint64"},{"name":"totalSupply","type":"uint64","internalType":"uint64"},{"name":"circulatingSupply","type":"uint64","internalType":"uint64"},{"name":"futureEmissions","type":"uint64","internalType":"uint64"},{"name":"nonCirculatingUserBalances","type":"tuple[]","internalType":"struct L1Read.UserBalance[]","components":[{"name":"user","type":"address","internalType":"address"},{"name":"balance","type":"uint64","internalType":"uint64"}]}]}],"stateMutability":"view"},{"type":"function","name":"userVaultEquity","inputs":[{"name":"user","type":"address","internalType":"address"},{"name":"vault","type":"address","internalType":"address"}],"outputs":[{"name":"","type":"tuple","internalType":"struct L1Read.UserVaultEquity","components":[{"name":"equity","type":"uint64","internalType":"uint64"},{"name":"lockedUntilTimestamp","type":"uint64","internalType":"uint64"}]}],"stateMutability":"view"},{"type":"function","name":"withdrawable","inputs":[{"name":"user","type":"address","internalType":"address"}],"outputs":[{"name":"","type":"tuple","internalType":"struct L1Read.Withdrawable","components":[{"name":"withdrawable","type":"uint64","internalType":"uint64"}]}],"stateMutability":"view"}],"bytecode":{"object":"0x608060405234801561000f575f80fd5b50613ae18061001d5f395ff3fe608060405234801561000f575f80fd5b5060043610610109575f3560e01c80639dbfb13f116100a0578063bffe34861161006f578063bffe34861461033b578063c0f0f5ef1461036b578063c8eec8c61461039b578063ce513b6f146103cb578063ee1b5af1146103fb57610109565b80639dbfb13f1461027b578063a69610d1146102ab578063b6dff0b5146102db578063be06f7ac1461030b57610109565b806389cf7c89116100dc57806389cf7c89146101bb5780638d1f4264146101eb578063907027591461021b578063944fa5261461024b57610109565b8063298c90051461010d57806337f980a51461012b5780634162cd321461015b57806368fb11091461018b575b5f80fd5b61011561042b565b6040516101229190611739565b60405180910390f35b610145600480360381019061014091906117bd565b61050b565b604051610152919061184a565b60405180910390f35b6101756004803603810190610170919061189c565b6105ff565b6040516101829190611a08565b60405180910390f35b6101a560048036038101906101a0919061189c565b6106f3565b6040516101b29190611bad565b60405180910390f35b6101d560048036038101906101d09190611c04565b6107e7565b6040516101e29190611cc3565b60405180910390f35b6102056004803603810190610200919061189c565b6108de565b6040516102129190611d09565b60405180910390f35b6102356004803603810190610230919061189c565b6109d2565b6040516102429190611739565b60405180910390f35b61026560048036038101906102609190611d22565b610abf565b6040516102729190611db3565b60405180910390f35b610295600480360381019061029091906117bd565b610bb6565b6040516102a29190611de6565b60405180910390f35b6102c560048036038101906102c09190611e29565b610caa565b6040516102d29190611ea7565b60405180910390f35b6102f560048036038101906102f0919061189c565b610da1565b6040516103029190611f79565b60405180910390f35b6103256004803603810190610320919061189c565b610e95565b60405161033291906120e1565b60405180910390f35b610355600480360381019061035091906117bd565b610f89565b60405161036291906121e9565b60405180910390f35b6103856004803603810190610380919061189c565b611077565b6040516103929190611739565b60405180910390f35b6103b560048036038101906103b0919061189c565b611164565b6040516103c29190611739565b60405180910390f35b6103e560048036038101906103e091906117bd565b611251565b6040516103f29190612223565b60405180910390f35b6104156004803603810190610410919061223c565b611345565b60405161042291906122a7565b60405180910390f35b5f80606061080973ffffffffffffffffffffffffffffffffffffffff1660405160200160405160208183030381529060405260405161046a9190612304565b5f60405180830381855afa9150503d805f81146104a2576040519150601f19603f3d011682016040523d82523d5f602084013e6104a7565b606091505b508092508193505050816104f0576040517f08c379a00000000000000000000000000000000000000000000000000000000081526004016104e79061239a565b60405180910390fd5b8080602001905181019061050491906123cc565b9250505090565b61051361143c565b5f606061080573ffffffffffffffffffffffffffffffffffffffff16846040516020016105409190612406565b60405160208183030381529060405260405161055c9190612304565b5f60405180830381855afa9150503d805f8114610594576040519150601f19603f3d011682016040523d82523d5f602084013e610599565b606091505b508092508193505050816105e2576040517f08c379a00000000000000000000000000000000000000000000000000000000081526004016105d99061248f565b60405180910390fd5b808060200190518101906105f691906125a2565b92505050919050565b610607611488565b5f606061080a73ffffffffffffffffffffffffffffffffffffffff168460405160200161063491906125dc565b6040516020818303038152906040526040516106509190612304565b5f60405180830381855afa9150503d805f8114610688576040519150601f19603f3d011682016040523d82523d5f602084013e61068d565b606091505b508092508193505050816106d6576040517f08c379a00000000000000000000000000000000000000000000000000000000081526004016106cd90612665565b60405180910390fd5b808060200190518101906106ea9190612836565b92505050919050565b6106fb6114c1565b5f606061080c73ffffffffffffffffffffffffffffffffffffffff168460405160200161072891906125dc565b6040516020818303038152906040526040516107449190612304565b5f60405180830381855afa9150503d805f811461077c576040519150601f19603f3d011682016040523d82523d5f602084013e610781565b606091505b508092508193505050816107ca576040517f08c379a00000000000000000000000000000000000000000000000000000000081526004016107c1906128c7565b60405180910390fd5b808060200190518101906107de9190612ae6565b92505050919050565b6107ef61153e565b5f606061080073ffffffffffffffffffffffffffffffffffffffff16858560405160200161081e929190612b3c565b60405160208183030381529060405260405161083a9190612304565b5f60405180830381855afa9150503d805f8114610872576040519150601f19603f3d011682016040523d82523d5f602084013e610877565b606091505b508092508193505050816108c0576040517f08c379a00000000000000000000000000000000000000000000000000000000081526004016108b790612bad565b60405180910390fd5b808060200190518101906108d49190612c7e565b9250505092915050565b6108e6611580565b5f606061080e73ffffffffffffffffffffffffffffffffffffffff168460405160200161091391906125dc565b60405160208183030381529060405260405161092f9190612304565b5f60405180830381855afa9150503d805f8114610967576040519150601f19603f3d011682016040523d82523d5f602084013e61096c565b606091505b508092508193505050816109b5576040517f08c379a00000000000000000000000000000000000000000000000000000000081526004016109ac90612cf3565b60405180910390fd5b808060200190518101906109c99190612d5e565b92505050919050565b5f80606061080873ffffffffffffffffffffffffffffffffffffffff1684604051602001610a0091906125dc565b604051602081830303815290604052604051610a1c9190612304565b5f60405180830381855afa9150503d805f8114610a54576040519150601f19603f3d011682016040523d82523d5f602084013e610a59565b606091505b50809250819350505081610aa2576040517f08c379a0000000000000000000000000000000000000000000000000000000008152600401610a9990612dd3565b60405180910390fd5b80806020019051810190610ab691906123cc565b92505050919050565b610ac76115ac565b5f606061080f73ffffffffffffffffffffffffffffffffffffffff168585604051602001610af6929190612df1565b604051602081830303815290604052604051610b129190612304565b5f60405180830381855afa9150503d805f8114610b4a576040519150601f19603f3d011682016040523d82523d5f602084013e610b4f565b606091505b50809250819350505081610b98576040517f08c379a0000000000000000000000000000000000000000000000000000000008152600401610b8f90612e88565b60405180910390fd5b80806020019051810190610bac9190612f1b565b9250505092915050565b610bbe6115ea565b5f606061081073ffffffffffffffffffffffffffffffffffffffff1684604051602001610beb9190612406565b604051602081830303815290604052604051610c079190612304565b5f60405180830381855afa9150503d805f8114610c3f576040519150601f19603f3d011682016040523d82523d5f602084013e610c44565b606091505b50809250819350505081610c8d576040517f08c379a0000000000000000000000000000000000000000000000000000000008152600401610c8490612fb6565b60405180910390fd5b80806020019051810190610ca1919061300d565b92505050919050565b610cb26115fe565b5f606061080173ffffffffffffffffffffffffffffffffffffffff168585604051602001610ce1929190613038565b604051602081830303815290604052604051610cfd9190612304565b5f60405180830381855afa9150503d805f8114610d35576040519150601f19603f3d011682016040523d82523d5f602084013e610d3a565b606091505b50809250819350505081610d83576040517f08c379a0000000000000000000000000000000000000000000000000000000008152600401610d7a906130cf565b60405180910390fd5b80806020019051810190610d97919061314e565b9250505092915050565b610da961163a565b5f606061080b73ffffffffffffffffffffffffffffffffffffffff1684604051602001610dd691906125dc565b604051602081830303815290604052604051610df29190612304565b5f60405180830381855afa9150503d805f8114610e2a576040519150601f19603f3d011682016040523d82523d5f602084013e610e2f565b606091505b50809250819350505081610e78576040517f08c379a0000000000000000000000000000000000000000000000000000000008152600401610e6f906131c3565b60405180910390fd5b80806020019051810190610e8c91906132f8565b92505050919050565b610e9d61165a565b5f606061080d73ffffffffffffffffffffffffffffffffffffffff1684604051602001610eca91906125dc565b604051602081830303815290604052604051610ee69190612304565b5f60405180830381855afa9150503d805f8114610f1e576040519150601f19603f3d011682016040523d82523d5f602084013e610f23565b606091505b50809250819350505081610f6c576040517f08c379a0000000000000000000000000000000000000000000000000000000008152600401610f63906133af565b60405180910390fd5b80806020019051810190610f80919061357f565b92505050919050565b60605f606061080473ffffffffffffffffffffffffffffffffffffffff1684604051602001610fb89190612406565b604051602081830303815290604052604051610fd49190612304565b5f60405180830381855afa9150503d805f811461100c576040519150601f19603f3d011682016040523d82523d5f602084013e611011565b606091505b5080925081935050508161105a576040517f08c379a000000000000000000000000000000000000000000000000000000000815260040161105190613636565b60405180910390fd5b8080602001905181019061106e9190613775565b92505050919050565b5f80606061080773ffffffffffffffffffffffffffffffffffffffff16846040516020016110a591906125dc565b6040516020818303038152906040526040516110c19190612304565b5f60405180830381855afa9150503d805f81146110f9576040519150601f19603f3d011682016040523d82523d5f602084013e6110fe565b606091505b50809250819350505081611147576040517f08c379a000000000000000000000000000000000000000000000000000000000815260040161113e90613806565b60405180910390fd5b8080602001905181019061115b91906123cc565b92505050919050565b5f80606061080673ffffffffffffffffffffffffffffffffffffffff168460405160200161119291906125dc565b6040516020818303038152906040526040516111ae9190612304565b5f60405180830381855afa9150503d805f81146111e6576040519150601f19603f3d011682016040523d82523d5f602084013e6111eb565b606091505b50809250819350505081611234576040517f08c379a000000000000000000000000000000000000000000000000000000000815260040161122b9061386e565b60405180910390fd5b8080602001905181019061124891906123cc565b92505050919050565b6112596116ad565b5f606061080373ffffffffffffffffffffffffffffffffffffffff16846040516020016112869190612406565b6040516020818303038152906040526040516112a29190612304565b5f60405180830381855afa9150503d805f81146112da576040519150601f19603f3d011682016040523d82523d5f602084013e6112df565b606091505b50809250819350505081611328576040517f08c379a000000000000000000000000000000000000000000000000000000000815260040161131f906138fc565b60405180910390fd5b8080602001905181019061133c9190613953565b92505050919050565b61134d6116c9565b5f606061080273ffffffffffffffffffffffffffffffffffffffff16858560405160200161137c92919061397e565b6040516020818303038152906040526040516113989190612304565b5f60405180830381855afa9150503d805f81146113d0576040519150601f19603f3d011682016040523d82523d5f602084013e6113d5565b606091505b5080925081935050508161141e576040517f08c379a000000000000000000000000000000000000000000000000000000000815260040161141590613a15565b60405180910390fd5b808060200190518101906114329190613a80565b9250505092915050565b60405180608001604052805f67ffffffffffffffff1681526020015f67ffffffffffffffff1681526020015f67ffffffffffffffff1681526020015f67ffffffffffffffff1681525090565b6040518060a00160405280606081526020015f63ffffffff1681526020015f60ff1681526020015f60ff1681526020015f151581525090565b60405180610100016040528060608152602001606081526020015f67ffffffffffffffff1681526020015f73ffffffffffffffffffffffffffffffffffffffff1681526020015f73ffffffffffffffffffffffffffffffffffffffff1681526020015f60ff1681526020015f60ff1681526020015f800b81525090565b6040518060a001604052805f60070b81526020015f67ffffffffffffffff1681526020015f60070b81526020015f63ffffffff1681526020015f151581525090565b60405180604001604052805f67ffffffffffffffff1681526020015f67ffffffffffffffff1681525090565b60405180608001604052805f60070b81526020015f67ffffffffffffffff1681526020015f67ffffffffffffffff1681526020015f60070b81525090565b60405180602001604052805f151581525090565b60405180606001604052805f67ffffffffffffffff1681526020015f67ffffffffffffffff1681526020015f67ffffffffffffffff1681525090565b6040518060400160405280606081526020016116546116f5565b81525090565b6040518060a001604052805f67ffffffffffffffff1681526020015f67ffffffffffffffff1681526020015f67ffffffffffffffff1681526020015f67ffffffffffffffff168152602001606081525090565b60405180602001604052805f67ffffffffffffffff1681525090565b60405180604001604052805f67ffffffffffffffff1681526020015f67ffffffffffffffff1681525090565b6040518060400160405280600290602082028036833780820191505090505090565b5f67ffffffffffffffff82169050919050565b61173381611717565b82525050565b5f60208201905061174c5f83018461172a565b92915050565b5f604051905090565b5f80fd5b5f80fd5b5f73ffffffffffffffffffffffffffffffffffffffff82169050919050565b5f61178c82611763565b9050919050565b61179c81611782565b81146117a6575f80fd5b50565b5f813590506117b781611793565b92915050565b5f602082840312156117d2576117d161175b565b5b5f6117df848285016117a9565b91505092915050565b6117f181611717565b82525050565b608082015f82015161180b5f8501826117e8565b50602082015161181e60208501826117e8565b50604082015161183160408501826117e8565b50606082015161184460608501826117e8565b50505050565b5f60808201905061185d5f8301846117f7565b92915050565b5f63ffffffff82169050919050565b61187b81611863565b8114611885575f80fd5b50565b5f8135905061189681611872565b92915050565b5f602082840312156118b1576118b061175b565b5b5f6118be84828501611888565b91505092915050565b5f81519050919050565b5f82825260208201905092915050565b5f5b838110156118fe5780820151818401526020810190506118e3565b5f8484015250505050565b5f601f19601f8301169050919050565b5f611923826118c7565b61192d81856118d1565b935061193d8185602086016118e1565b61194681611909565b840191505092915050565b61195a81611863565b82525050565b5f60ff82169050919050565b61197581611960565b82525050565b5f8115159050919050565b61198f8161197b565b82525050565b5f60a083015f8301518482035f8601526119af8282611919565b91505060208301516119c46020860182611951565b5060408301516119d7604086018261196c565b5060608301516119ea606086018261196c565b5060808301516119fd6080860182611986565b508091505092915050565b5f6020820190508181035f830152611a208184611995565b905092915050565b5f81519050919050565b5f82825260208201905092915050565b5f819050602082019050919050565b5f611a5c83836117e8565b60208301905092915050565b5f602082019050919050565b5f611a7e82611a28565b611a888185611a32565b9350611a9383611a42565b805f5b83811015611ac3578151611aaa8882611a51565b9750611ab583611a68565b925050600181019050611a96565b5085935050505092915050565b611ad981611782565b82525050565b5f815f0b9050919050565b611af381611adf565b82525050565b5f61010083015f8301518482035f860152611b148282611919565b91505060208301518482036020860152611b2e8282611a74565b9150506040830151611b4360408601826117e8565b506060830151611b566060860182611ad0565b506080830151611b696080860182611ad0565b5060a0830151611b7c60a086018261196c565b5060c0830151611b8f60c086018261196c565b5060e0830151611ba260e0860182611aea565b508091505092915050565b5f6020820190508181035f830152611bc58184611af9565b905092915050565b5f61ffff82169050919050565b611be381611bcd565b8114611bed575f80fd5b50565b5f81359050611bfe81611bda565b92915050565b5f8060408385031215611c1a57611c1961175b565b5b5f611c27858286016117a9565b9250506020611c3885828601611bf0565b9150509250929050565b5f8160070b9050919050565b611c5781611c42565b82525050565b60a082015f820151611c715f850182611c4e565b506020820151611c8460208501826117e8565b506040820151611c976040850182611c4e565b506060820151611caa6060850182611951565b506080820151611cbd6080850182611986565b50505050565b5f60a082019050611cd65f830184611c5d565b92915050565b604082015f820151611cf05f8501826117e8565b506020820151611d0360208501826117e8565b50505050565b5f604082019050611d1c5f830184611cdc565b92915050565b5f8060408385031215611d3857611d3761175b565b5b5f611d4585828601611888565b9250506020611d56858286016117a9565b9150509250929050565b608082015f820151611d745f850182611c4e565b506020820151611d8760208501826117e8565b506040820151611d9a60408501826117e8565b506060820151611dad6060850182611c4e565b50505050565b5f608082019050611dc65f830184611d60565b92915050565b602082015f820151611de05f850182611986565b50505050565b5f602082019050611df95f830184611dcc565b92915050565b611e0881611717565b8114611e12575f80fd5b50565b5f81359050611e2381611dff565b92915050565b5f8060408385031215611e3f57611e3e61175b565b5b5f611e4c858286016117a9565b9250506020611e5d85828601611e15565b9150509250929050565b606082015f820151611e7b5f8501826117e8565b506020820151611e8e60208501826117e8565b506040820151611ea160408501826117e8565b50505050565b5f606082019050611eba5f830184611e67565b92915050565b5f60029050919050565b5f81905092915050565b5f819050919050565b5f602082019050919050565b611ef281611ec0565b611efc8184611eca565b9250611f0782611ed4565b805f5b83811015611f37578151611f1e8782611a51565b9650611f2983611edd565b925050600181019050611f0a565b505050505050565b5f606083015f8301518482035f860152611f598282611919565b9150506020830151611f6e6020860182611ee9565b508091505092915050565b5f6020820190508181035f830152611f918184611f3f565b905092915050565b5f81519050919050565b5f82825260208201905092915050565b5f819050602082019050919050565b604082015f820151611fd65f850182611ad0565b506020820151611fe960208501826117e8565b50505050565b5f611ffa8383611fc2565b60408301905092915050565b5f602082019050919050565b5f61201c82611f99565b6120268185611fa3565b935061203183611fb3565b805f5b838110156120615781516120488882611fef565b975061205383612006565b925050600181019050612034565b5085935050505092915050565b5f60a083015f8301516120835f8601826117e8565b50602083015161209660208601826117e8565b5060408301516120a960408601826117e8565b5060608301516120bc60608601826117e8565b50608083015184820360808601526120d48282612012565b9150508091505092915050565b5f6020820190508181035f8301526120f9818461206e565b905092915050565b5f81519050919050565b5f82825260208201905092915050565b5f819050602082019050919050565b606082015f82015161213e5f850182611ad0565b50602082015161215160208501826117e8565b50604082015161216460408501826117e8565b50505050565b5f612175838361212a565b60608301905092915050565b5f602082019050919050565b5f61219782612101565b6121a1818561210b565b93506121ac8361211b565b805f5b838110156121dc5781516121c3888261216a565b97506121ce83612181565b9250506001810190506121af565b5085935050505092915050565b5f6020820190508181035f830152612201818461218d565b905092915050565b602082015f82015161221d5f8501826117e8565b50505050565b5f6020820190506122365f830184612209565b92915050565b5f80604083850312156122525761225161175b565b5b5f61225f858286016117a9565b9250506020612270858286016117a9565b9150509250929050565b604082015f82015161228e5f8501826117e8565b5060208201516122a160208501826117e8565b50505050565b5f6040820190506122ba5f83018461227a565b92915050565b5f81519050919050565b5f81905092915050565b5f6122de826122c0565b6122e881856122ca565b93506122f88185602086016118e1565b80840191505092915050565b5f61230f82846122d4565b915081905092915050565b5f82825260208201905092915050565b7f4c31426c6f636b4e756d62657220707265636f6d70696c652063616c6c2066615f8201527f696c656400000000000000000000000000000000000000000000000000000000602082015250565b5f61238460248361231a565b915061238f8261232a565b604082019050919050565b5f6020820190508181035f8301526123b181612378565b9050919050565b5f815190506123c681611dff565b92915050565b5f602082840312156123e1576123e061175b565b5b5f6123ee848285016123b8565b91505092915050565b61240081611782565b82525050565b5f6020820190506124195f8301846123f7565b92915050565b7f44656c656761746f727953756d6d61727920707265636f6d70696c652063616c5f8201527f6c206661696c6564000000000000000000000000000000000000000000000000602082015250565b5f61247960288361231a565b91506124848261241f565b604082019050919050565b5f6020820190508181035f8301526124a68161246d565b9050919050565b5f80fd5b7f4e487b71000000000000000000000000000000000000000000000000000000005f52604160045260245ffd5b6124e782611909565b810181811067ffffffffffffffff82111715612506576125056124b1565b5b80604052505050565b5f612518611752565b905061252482826124de565b919050565b5f80fd5b5f60808284031215612542576125416124ad565b5b61254c608061250f565b90505f61255b848285016123b8565b5f83015250602061256e848285016123b8565b6020830152506040612582848285016123b8565b6040830152506060612596848285016123b8565b60608301525092915050565b5f608082840312156125b7576125b661175b565b5b5f6125c48482850161252d565b91505092915050565b6125d681611863565b82525050565b5f6020820190506125ef5f8301846125cd565b92915050565b7f506572704173736574496e666f20707265636f6d70696c652063616c6c2066615f8201527f696c656400000000000000000000000000000000000000000000000000000000602082015250565b5f61264f60248361231a565b915061265a826125f5565b604082019050919050565b5f6020820190508181035f83015261267c81612643565b9050919050565b5f80fd5b5f80fd5b5f67ffffffffffffffff8211156126a5576126a46124b1565b5b6126ae82611909565b9050602081019050919050565b5f6126cd6126c88461268b565b61250f565b9050828152602081018484840111156126e9576126e8612687565b5b6126f48482856118e1565b509392505050565b5f82601f8301126127105761270f612683565b5b81516127208482602086016126bb565b91505092915050565b5f8151905061273781611872565b92915050565b61274681611960565b8114612750575f80fd5b50565b5f815190506127618161273d565b92915050565b6127708161197b565b811461277a575f80fd5b50565b5f8151905061278b81612767565b92915050565b5f60a082840312156127a6576127a56124ad565b5b6127b060a061250f565b90505f82015167ffffffffffffffff8111156127cf576127ce612529565b5b6127db848285016126fc565b5f8301525060206127ee84828501612729565b602083015250604061280284828501612753565b604083015250606061281684828501612753565b606083015250608061282a8482850161277d565b60808301525092915050565b5f6020828403121561284b5761284a61175b565b5b5f82015167ffffffffffffffff8111156128685761286761175f565b5b61287484828501612791565b91505092915050565b7f546f6b656e496e666f20707265636f6d70696c652063616c6c206661696c65645f82015250565b5f6128b160208361231a565b91506128bc8261287d565b602082019050919050565b5f6020820190508181035f8301526128de816128a5565b9050919050565b5f67ffffffffffffffff8211156128ff576128fe6124b1565b5b602082029050602081019050919050565b5f80fd5b5f612926612921846128e5565b61250f565b9050808382526020820190506020840283018581111561294957612948612910565b5b835b81811015612972578061295e88826123b8565b84526020840193505060208101905061294b565b5050509392505050565b5f82601f8301126129905761298f612683565b5b81516129a0848260208601612914565b91505092915050565b5f815190506129b781611793565b92915050565b6129c681611adf565b81146129d0575f80fd5b50565b5f815190506129e1816129bd565b92915050565b5f61010082840312156129fd576129fc6124ad565b5b612a0861010061250f565b90505f82015167ffffffffffffffff811115612a2757612a26612529565b5b612a33848285016126fc565b5f83015250602082015167ffffffffffffffff811115612a5657612a55612529565b5b612a628482850161297c565b6020830152506040612a76848285016123b8565b6040830152506060612a8a848285016129a9565b6060830152506080612a9e848285016129a9565b60808301525060a0612ab284828501612753565b60a08301525060c0612ac684828501612753565b60c08301525060e0612ada848285016129d3565b60e08301525092915050565b5f60208284031215612afb57612afa61175b565b5b5f82015167ffffffffffffffff811115612b1857612b1761175f565b5b612b24848285016129e7565b91505092915050565b612b3681611bcd565b82525050565b5f604082019050612b4f5f8301856123f7565b612b5c6020830184612b2d565b9392505050565b7f506f736974696f6e20707265636f6d70696c652063616c6c206661696c6564005f82015250565b5f612b97601f8361231a565b9150612ba282612b63565b602082019050919050565b5f6020820190508181035f830152612bc481612b8b565b9050919050565b612bd481611c42565b8114612bde575f80fd5b50565b5f81519050612bef81612bcb565b92915050565b5f60a08284031215612c0a57612c096124ad565b5b612c1460a061250f565b90505f612c2384828501612be1565b5f830152506020612c36848285016123b8565b6020830152506040612c4a84828501612be1565b6040830152506060612c5e84828501612729565b6060830152506080612c728482850161277d565b60808301525092915050565b5f60a08284031215612c9357612c9261175b565b5b5f612ca084828501612bf5565b91505092915050565b7f42626f20707265636f6d70696c652063616c6c206661696c65640000000000005f82015250565b5f612cdd601a8361231a565b9150612ce882612ca9565b602082019050919050565b5f6020820190508181035f830152612d0a81612cd1565b9050919050565b5f60408284031215612d2657612d256124ad565b5b612d30604061250f565b90505f612d3f848285016123b8565b5f830152506020612d52848285016123b8565b60208301525092915050565b5f60408284031215612d7357612d7261175b565b5b5f612d8084828501612d11565b91505092915050565b7f53706f74507820707265636f6d70696c652063616c6c206661696c65640000005f82015250565b5f612dbd601d8361231a565b9150612dc882612d89565b602082019050919050565b5f6020820190508181035f830152612dea81612db1565b9050919050565b5f604082019050612e045f8301856125cd565b612e1160208301846123f7565b9392505050565b7f4163636f756e74206d617267696e2073756d6d61727920707265636f6d70696c5f8201527f652063616c6c206661696c656400000000000000000000000000000000000000602082015250565b5f612e72602d8361231a565b9150612e7d82612e18565b604082019050919050565b5f6020820190508181035f830152612e9f81612e66565b9050919050565b5f60808284031215612ebb57612eba6124ad565b5b612ec5608061250f565b90505f612ed484828501612be1565b5f830152506020612ee7848285016123b8565b6020830152506040612efb848285016123b8565b6040830152506060612f0f84828501612be1565b60608301525092915050565b5f60808284031215612f3057612f2f61175b565b5b5f612f3d84828501612ea6565b91505092915050565b7f436f726520757365722065786973747320707265636f6d70696c652063616c6c5f8201527f206661696c656400000000000000000000000000000000000000000000000000602082015250565b5f612fa060278361231a565b9150612fab82612f46565b604082019050919050565b5f6020820190508181035f830152612fcd81612f94565b9050919050565b5f60208284031215612fe957612fe86124ad565b5b612ff3602061250f565b90505f6130028482850161277d565b5f8301525092915050565b5f602082840312156130225761302161175b565b5b5f61302f84828501612fd4565b91505092915050565b5f60408201905061304b5f8301856123f7565b613058602083018461172a565b9392505050565b7f53706f7442616c616e636520707265636f6d70696c652063616c6c206661696c5f8201527f6564000000000000000000000000000000000000000000000000000000000000602082015250565b5f6130b960228361231a565b91506130c48261305f565b604082019050919050565b5f6020820190508181035f8301526130e6816130ad565b9050919050565b5f60608284031215613102576131016124ad565b5b61310c606061250f565b90505f61311b848285016123b8565b5f83015250602061312e848285016123b8565b6020830152506040613142848285016123b8565b60408301525092915050565b5f606082840312156131635761316261175b565b5b5f613170848285016130ed565b91505092915050565b7f53706f74496e666f20707265636f6d70696c652063616c6c206661696c6564005f82015250565b5f6131ad601f8361231a565b91506131b882613179565b602082019050919050565b5f6020820190508181035f8301526131da816131a1565b9050919050565b5f67ffffffffffffffff8211156131fb576131fa6124b1565b5b602082029050919050565b5f613218613213846131e1565b61250f565b9050806020840283018581111561323257613231612910565b5b835b8181101561325b578061324788826123b8565b845260208401935050602081019050613234565b5050509392505050565b5f82601f83011261327957613278612683565b5b6002613286848285613206565b91505092915050565b5f606082840312156132a4576132a36124ad565b5b6132ae604061250f565b90505f82015167ffffffffffffffff8111156132cd576132cc612529565b5b6132d9848285016126fc565b5f8301525060206132ec84828501613265565b60208301525092915050565b5f6020828403121561330d5761330c61175b565b5b5f82015167ffffffffffffffff81111561332a5761332961175f565b5b6133368482850161328f565b91505092915050565b7f546f6b656e537570706c7920707265636f6d70696c652063616c6c206661696c5f8201527f6564000000000000000000000000000000000000000000000000000000000000602082015250565b5f61339960228361231a565b91506133a48261333f565b604082019050919050565b5f6020820190508181035f8301526133c68161338d565b9050919050565b5f67ffffffffffffffff8211156133e7576133e66124b1565b5b602082029050602081019050919050565b5f6040828403121561340d5761340c6124ad565b5b613417604061250f565b90505f613426848285016129a9565b5f830152506020613439848285016123b8565b60208301525092915050565b5f613457613452846133cd565b61250f565b9050808382526020820190506040840283018581111561347a57613479612910565b5b835b818110156134a3578061348f88826133f8565b84526020840193505060408101905061347c565b5050509392505050565b5f82601f8301126134c1576134c0612683565b5b81516134d1848260208601613445565b91505092915050565b5f60a082840312156134ef576134ee6124ad565b5b6134f960a061250f565b90505f613508848285016123b8565b5f83015250602061351b848285016123b8565b602083015250604061352f848285016123b8565b6040830152506060613543848285016123b8565b606083015250608082015167ffffffffffffffff81111561356757613566612529565b5b613573848285016134ad565b60808301525092915050565b5f602082840312156135945761359361175b565b5b5f82015167ffffffffffffffff8111156135b1576135b061175f565b5b6135bd848285016134da565b91505092915050565b7f44656c65676174696f6e7320707265636f6d70696c652063616c6c206661696c5f8201527f6564000000000000000000000000000000000000000000000000000000000000602082015250565b5f61362060228361231a565b915061362b826135c6565b604082019050919050565b5f6020820190508181035f83015261364d81613614565b9050919050565b5f67ffffffffffffffff82111561366e5761366d6124b1565b5b602082029050602081019050919050565b5f60608284031215613694576136936124ad565b5b61369e606061250f565b90505f6136ad848285016129a9565b5f8301525060206136c0848285016123b8565b60208301525060406136d4848285016123b8565b60408301525092915050565b5f6136f26136ed84613654565b61250f565b9050808382526020820190506060840283018581111561371557613714612910565b5b835b8181101561373e578061372a888261367f565b845260208401935050606081019050613717565b5050509392505050565b5f82601f83011261375c5761375b612683565b5b815161376c8482602086016136e0565b91505092915050565b5f6020828403121561378a5761378961175b565b5b5f82015167ffffffffffffffff8111156137a7576137a661175f565b5b6137b384828501613748565b91505092915050565b7f4f7261636c65507820707265636f6d70696c652063616c6c206661696c6564005f82015250565b5f6137f0601f8361231a565b91506137fb826137bc565b602082019050919050565b5f6020820190508181035f83015261381d816137e4565b9050919050565b7f4d61726b507820707265636f6d70696c652063616c6c206661696c65640000005f82015250565b5f613858601d8361231a565b915061386382613824565b602082019050919050565b5f6020820190508181035f8301526138858161384c565b9050919050565b7f576974686472617761626c6520707265636f6d70696c652063616c6c206661695f8201527f6c65640000000000000000000000000000000000000000000000000000000000602082015250565b5f6138e660238361231a565b91506138f18261388c565b604082019050919050565b5f6020820190508181035f830152613913816138da565b9050919050565b5f6020828403121561392f5761392e6124ad565b5b613939602061250f565b90505f613948848285016123b8565b5f8301525092915050565b5f602082840312156139685761396761175b565b5b5f6139758482850161391a565b91505092915050565b5f6040820190506139915f8301856123f7565b61399e60208301846123f7565b9392505050565b7f5661756c7445717569747920707265636f6d70696c652063616c6c206661696c5f8201527f6564000000000000000000000000000000000000000000000000000000000000602082015250565b5f6139ff60228361231a565b9150613a0a826139a5565b604082019050919050565b5f6020820190508181035f830152613a2c816139f3565b9050919050565b5f60408284031215613a4857613a476124ad565b5b613a52604061250f565b90505f613a61848285016123b8565b5f830152506020613a74848285016123b8565b60208301525092915050565b5f60408284031215613a9557613a9461175b565b5b5f613aa284828501613a33565b9150509291505056fea264697066735822122023f6aac36fbcc170fda0e934ac05967efa634044de98091211b903dec0e67a8964736f6c63430008160033","linkReferences":{}},"methodIdentifiers":{"accountMarginSummary(uint32,address)":"944fa526","bbo(uint32)":"8d1f4264","coreUserExists(address)":"9dbfb13f","delegations(address)":"bffe3486","delegatorSummary(address)":"37f980a5","l1BlockNumber()":"298c9005","markPx(uint32)":"c8eec8c6","oraclePx(uint32)":"c0f0f5ef","perpAssetInfo(uint32)":"4162cd32","position(address,uint16)":"89cf7c89","spotBalance(address,uint64)":"a69610d1","spotInfo(uint32)":"b6dff0b5","spotPx(uint32)":"90702759","tokenInfo(uint32)":"68fb1109","tokenSupply(uint32)":"be06f7ac","userVaultEquity(address,address)":"ee1b5af1","withdrawable(address)":"ce513b6f"},"id":0}