{"abi":[{"type":"constructor","inputs":[{"name":"_oracle","type":"address","internalType":"address"},{"name":"_read","type":"address","internalType":"address"}],"stateMutability":"nonpayable"},{"type":"function","name":"createPoll","inputs":[{"name":"question","type":"string","internalType":"string"},{"name":"description","type":"string","internalType":"string"},{"name":"startDate","type":"uint256","internalType":"uint256"},{"name":"endDate","type":"uint256","internalType":"uint256"},{"name":"minStake","type":"uint256","internalType":"uint256"},{"name":"creator","type":"address","internalType":"address"}],"outputs":[{"name":"pollId","type":"uint256","internalType":"uint256"}],"stateMutability":"nonpayable"},{"type":"function","name":"endPoll","inputs":[{"name":"pollId","type":"uint256","internalType":"uint256"}],"outputs":[],"stateMutability":"nonpayable"},{"type":"function","name":"oracle","inputs":[],"outputs":[{"name":"","type":"address","internalType":"address"}],"stateMutability":"view"},{"type":"function","name":"pollCount","inputs":[],"outputs":[{"name":"","type":"uint256","internalType":"uint256"}],"stateMutability":"view"},{"type":"function","name":"polls","inputs":[{"name":"","type":"uint256","internalType":"uint256"}],"outputs":[{"name":"question","type":"string","internalType":"string"},{"name":"description","type":"string","internalType":"string"},{"name":"startDate","type":"uint256","internalType":"uint256"},{"name":"endDate","type":"uint256","internalType":"uint256"},{"name":"minStake","type":"uint256","internalType":"uint256"},{"name":"creator","type":"address","internalType":"address"}],"stateMutability":"view"},{"type":"function","name":"pushVotes","inputs":[{"name":"pollId","type":"uint256","internalType":"uint256"},{"name":"voters","type":"address[]","internalType":"address[]"},{"name":"choices","type":"uint256[]","internalType":"uint256[]"}],"outputs":[],"stateMutability":"nonpayable"},{"type":"function","name":"read","inputs":[],"outputs":[{"name":"","type":"address","internalType":"contract L1Read"}],"stateMutability":"view"},{"type":"function","name":"tallies","inputs":[{"name":"","type":"uint256","internalType":"uint256"},{"name":"","type":"uint256","internalType":"uint256"}],"outputs":[{"name":"","type":"uint256","internalType":"uint256"}],"stateMutability":"view"},{"type":"function","name":"votes","inputs":[{"name":"","type":"uint256","internalType":"uint256"}],"outputs":[{"name":"timestamp","type":"uint256","internalType":"uint256"}],"stateMutability":"view"},{"type":"event","name":"PollCreated","inputs":[{"name":"pollId","type":"uint256","indexed":true,"internalType":"uint256"}],"anonymous":false},{"type":"event","name":"PollEnded","inputs":[{"name":"pollId","type":"uint256","indexed":true,"internalType":"uint256"}],"anonymous":false},{"type":"event","name":"VotePushed","inputs":[{"name":"pollId","type":"uint256","indexed":true,"internalType":"uint256"},{"name":"voters","type":"address[]","indexed":false,"internalType":"address[]"},{"name":"choices","type":"uint256[]","indexed":false,"internalType":"uint256[]"}],"anonymous":false}],"bytecode":{"object":"0x608060405234801562000010575f80fd5b5060405162001b0d38038062001b0d833981810160405281019062000036919062000123565b8060035f6101000a81548173ffffffffffffffffffffffffffffffffffffffff021916908373ffffffffffffffffffffffffffffffffffffffff1602179055508160045f6101000a81548173ffffffffffffffffffffffffffffffffffffffff021916908373ffffffffffffffffffffffffffffffffffffffff160217905550505062000168565b5f80fd5b5f73ffffffffffffffffffffffffffffffffffffffff82169050919050565b5f620000ed82620000c2565b9050919050565b620000ff81620000e1565b81146200010a575f80fd5b50565b5f815190506200011d81620000f4565b92915050565b5f80604083850312156200013c576200013b620000be565b5b5f6200014b858286016200010d565b92505060206200015e858286016200010d565b9150509250929050565b61199780620001765f395ff3fe608060405234801561000f575f80fd5b5060043610610091575f3560e01c80639207891d116100645780639207891d1461011d578063ac2f00741461013b578063d46615c314610170578063f43b8778146101a0578063f52dd56c146101bc57610091565b80633ccc705d1461009557806357de26a4146100b15780635df81330146100cf5780637dc0d1d0146100ff575b5f80fd5b6100af60048036038101906100aa9190610c9a565b6101ec565b005b6100b9610423565b6040516100c69190610d7d565b60405180910390f35b6100e960048036038101906100e49190610d96565b610448565b6040516100f69190610dd0565b60405180910390f35b610107610462565b6040516101149190610df8565b60405180910390f35b610125610487565b6040516101329190610dd0565b60405180910390f35b61015560048036038101906101509190610d96565b61048d565b60405161016796959493929190610e8b565b60405180910390f35b61018a60048036038101906101859190610ef8565b6105f0565b6040516101979190610dd0565b60405180910390f35b6101ba60048036038101906101b59190610d96565b610610565b005b6101d660048036038101906101d19190610fe6565b6106f4565b6040516101e39190610dd0565b60405180910390f35b60045f9054906101000a900473ffffffffffffffffffffffffffffffffffffffff1673ffffffffffffffffffffffffffffffffffffffff163373ffffffffffffffffffffffffffffffffffffffff161461027b576040517f08c379a0000000000000000000000000000000000000000000000000000000008152600401610272906110f1565b60405180910390fd5b80518251146102bf576040517f08c379a00000000000000000000000000000000000000000000000000000000081526004016102b69061117f565b60405180910390fd5b5f5b8251811015610361575f808581526020019081526020015f205f018382815181106102ef576102ee61119d565b5b6020026020010151908060018154018082558091505060019003905f5260205f20015f9091909190916101000a81548173ffffffffffffffffffffffffffffffffffffffff021916908373ffffffffffffffffffffffffffffffffffffffff16021790555080806001019150506102c1565b505f5b81518110156103cb575f808581526020019081526020015f206001018282815181106103935761039261119d565b5b6020026020010151908060018154018082558091505060019003905f5260205f20015f90919091909150558080600101915050610364565b50425f808581526020019081526020015f2060020181905550827f8b7f604ded99b661db12cbf90378970c1d64d24d9a14577f28109fa1e3249cb98383604051610416929190611338565b60405180910390a2505050565b60035f9054906101000a900473ffffffffffffffffffffffffffffffffffffffff1681565b5f602052805f5260405f205f915090508060020154905081565b60045f9054906101000a900473ffffffffffffffffffffffffffffffffffffffff1681565b60055481565b6001602052805f5260405f205f91509050805f0180546104ac9061139a565b80601f01602080910402602001604051908101604052809291908181526020018280546104d89061139a565b80156105235780601f106104fa57610100808354040283529160200191610523565b820191905f5260205f20905b81548152906001019060200180831161050657829003601f168201915b5050505050908060010180546105389061139a565b80601f01602080910402602001604051908101604052809291908181526020018280546105649061139a565b80156105af5780601f10610586576101008083540402835291602001916105af565b820191905f5260205f20905b81548152906001019060200180831161059257829003601f168201915b505050505090806002015490806003015490806004015490806005015f9054906101000a900473ffffffffffffffffffffffffffffffffffffffff16905086565b6002602052815f5260405f20602052805f5260405f205f91509150505481565b4260015f8381526020019081526020015f206003015410610666576040517f08c379a000000000000000000000000000000000000000000000000000000000815260040161065d90611414565b60405180910390fd5b5f805f8381526020019081526020015f2060020154116106bb576040517f08c379a00000000000000000000000000000000000000000000000000000000081526004016106b29061147c565b60405180910390fd5b6106c48161082d565b807f14d4cfc1c2a6f37c8f97ad80fc12bd9d943ea6d4dd7684137850125597ce9bf760405160405180910390a250565b5f60055490506040518060c001604052808881526020018781526020018681526020018581526020018481526020018373ffffffffffffffffffffffffffffffffffffffff1681525060015f8381526020019081526020015f205f820151815f019081610761919061162e565b506020820151816001019081610777919061162e565b5060408201518160020155606082015181600301556080820151816004015560a0820151816005015f6101000a81548173ffffffffffffffffffffffffffffffffffffffff021916908373ffffffffffffffffffffffffffffffffffffffff16021790555090505060055f8154809291906107f19061172a565b9190505550807fab0309b6731a34e8750174d3c2c9591a34a2bf0c1425a30b34122be08d05073960405160405180910390a29695505050505050565b5f5b5f808381526020019081526020015f205f01805490508110156109e8575f60035f9054906101000a900473ffffffffffffffffffffffffffffffffffffffff1673ffffffffffffffffffffffffffffffffffffffff1663bffe34865f808681526020019081526020015f205f0184815481106108ae576108ad61119d565b5b905f5260205f20015f9054906101000a900473ffffffffffffffffffffffffffffffffffffffff166040518263ffffffff1660e01b81526004016108f29190610df8565b5f60405180830381865afa15801561090c573d5f803e3d5ffd5b505050506040513d5f823e3d601f19601f8201168201806040525081019061093491906118e7565b90505f5b81518110156109d9578181815181106109545761095361119d565b5b60200260200101516020015167ffffffffffffffff1660025f8681526020019081526020015f205f805f8881526020019081526020015f2060010186815481106109a1576109a061119d565b5b905f5260205f20015481526020019081526020015f205f8282546109c5919061192e565b925050819055508080600101915050610938565b5050808060010191505061082f565b5050565b5f604051905090565b5f80fd5b5f80fd5b5f819050919050565b610a0f816109fd565b8114610a19575f80fd5b50565b5f81359050610a2a81610a06565b92915050565b5f80fd5b5f601f19601f8301169050919050565b7f4e487b71000000000000000000000000000000000000000000000000000000005f52604160045260245ffd5b610a7a82610a34565b810181811067ffffffffffffffff82111715610a9957610a98610a44565b5b80604052505050565b5f610aab6109ec565b9050610ab78282610a71565b919050565b5f67ffffffffffffffff821115610ad657610ad5610a44565b5b602082029050602081019050919050565b5f80fd5b5f73ffffffffffffffffffffffffffffffffffffffff82169050919050565b5f610b1482610aeb565b9050919050565b610b2481610b0a565b8114610b2e575f80fd5b50565b5f81359050610b3f81610b1b565b92915050565b5f610b57610b5284610abc565b610aa2565b90508083825260208201905060208402830185811115610b7a57610b79610ae7565b5b835b81811015610ba35780610b8f8882610b31565b845260208401935050602081019050610b7c565b5050509392505050565b5f82601f830112610bc157610bc0610a30565b5b8135610bd1848260208601610b45565b91505092915050565b5f67ffffffffffffffff821115610bf457610bf3610a44565b5b602082029050602081019050919050565b5f610c17610c1284610bda565b610aa2565b90508083825260208201905060208402830185811115610c3a57610c39610ae7565b5b835b81811015610c635780610c4f8882610a1c565b845260208401935050602081019050610c3c565b5050509392505050565b5f82601f830112610c8157610c80610a30565b5b8135610c91848260208601610c05565b91505092915050565b5f805f60608486031215610cb157610cb06109f5565b5b5f610cbe86828701610a1c565b935050602084013567ffffffffffffffff811115610cdf57610cde6109f9565b5b610ceb86828701610bad565b925050604084013567ffffffffffffffff811115610d0c57610d0b6109f9565b5b610d1886828701610c6d565b9150509250925092565b5f819050919050565b5f610d45610d40610d3b84610aeb565b610d22565b610aeb565b9050919050565b5f610d5682610d2b565b9050919050565b5f610d6782610d4c565b9050919050565b610d7781610d5d565b82525050565b5f602082019050610d905f830184610d6e565b92915050565b5f60208284031215610dab57610daa6109f5565b5b5f610db884828501610a1c565b91505092915050565b610dca816109fd565b82525050565b5f602082019050610de35f830184610dc1565b92915050565b610df281610b0a565b82525050565b5f602082019050610e0b5f830184610de9565b92915050565b5f81519050919050565b5f82825260208201905092915050565b5f5b83811015610e48578082015181840152602081019050610e2d565b5f8484015250505050565b5f610e5d82610e11565b610e678185610e1b565b9350610e77818560208601610e2b565b610e8081610a34565b840191505092915050565b5f60c0820190508181035f830152610ea38189610e53565b90508181036020830152610eb78188610e53565b9050610ec66040830187610dc1565b610ed36060830186610dc1565b610ee06080830185610dc1565b610eed60a0830184610de9565b979650505050505050565b5f8060408385031215610f0e57610f0d6109f5565b5b5f610f1b85828601610a1c565b9250506020610f2c85828601610a1c565b9150509250929050565b5f80fd5b5f67ffffffffffffffff821115610f5457610f53610a44565b5b610f5d82610a34565b9050602081019050919050565b828183375f83830152505050565b5f610f8a610f8584610f3a565b610aa2565b905082815260208101848484011115610fa657610fa5610f36565b5b610fb1848285610f6a565b509392505050565b5f82601f830112610fcd57610fcc610a30565b5b8135610fdd848260208601610f78565b91505092915050565b5f805f805f8060c0878903121561100057610fff6109f5565b5b5f87013567ffffffffffffffff81111561101d5761101c6109f9565b5b61102989828a01610fb9565b965050602087013567ffffffffffffffff81111561104a576110496109f9565b5b61105689828a01610fb9565b955050604061106789828a01610a1c565b945050606061107889828a01610a1c565b935050608061108989828a01610a1c565b92505060a061109a89828a01610b31565b9150509295509295509295565b7f4f6e6c7920746865206f7261636c652063616e207075736820766f74657300005f82015250565b5f6110db601e83610e1b565b91506110e6826110a7565b602082019050919050565b5f6020820190508181035f830152611108816110cf565b9050919050565b7f566f7465727320616e642063686f69636573206d7573742062652074686520735f8201527f616d65206c656e67746800000000000000000000000000000000000000000000602082015250565b5f611169602a83610e1b565b91506111748261110f565b604082019050919050565b5f6020820190508181035f8301526111968161115d565b9050919050565b7f4e487b71000000000000000000000000000000000000000000000000000000005f52603260045260245ffd5b5f81519050919050565b5f82825260208201905092915050565b5f819050602082019050919050565b6111fc81610b0a565b82525050565b5f61120d83836111f3565b60208301905092915050565b5f602082019050919050565b5f61122f826111ca565b61123981856111d4565b9350611244836111e4565b805f5b8381101561127457815161125b8882611202565b975061126683611219565b925050600181019050611247565b5085935050505092915050565b5f81519050919050565b5f82825260208201905092915050565b5f819050602082019050919050565b6112b3816109fd565b82525050565b5f6112c483836112aa565b60208301905092915050565b5f602082019050919050565b5f6112e682611281565b6112f0818561128b565b93506112fb8361129b565b805f5b8381101561132b57815161131288826112b9565b975061131d836112d0565b9250506001810190506112fe565b5085935050505092915050565b5f6040820190508181035f8301526113508185611225565b9050818103602083015261136481846112dc565b90509392505050565b7f4e487b71000000000000000000000000000000000000000000000000000000005f52602260045260245ffd5b5f60028204905060018216806113b157607f821691505b6020821081036113c4576113c361136d565b5b50919050565b7f506f6c6c20686173206e6f7420656e64656400000000000000000000000000005f82015250565b5f6113fe601283610e1b565b9150611409826113ca565b602082019050919050565b5f6020820190508181035f83015261142b816113f2565b9050919050565b7f566f7465732068617665206e6f74206265656e207075736865640000000000005f82015250565b5f611466601a83610e1b565b915061147182611432565b602082019050919050565b5f6020820190508181035f8301526114938161145a565b9050919050565b5f819050815f5260205f209050919050565b5f6020601f8301049050919050565b5f82821b905092915050565b5f600883026114f67fffffffffffffffffffffffffffffffffffffffffffffffffffffffffffffffff826114bb565b61150086836114bb565b95508019841693508086168417925050509392505050565b5f61153261152d611528846109fd565b610d22565b6109fd565b9050919050565b5f819050919050565b61154b83611518565b61155f61155782611539565b8484546114c7565b825550505050565b5f90565b611573611567565b61157e818484611542565b505050565b5b818110156115a1576115965f8261156b565b600181019050611584565b5050565b601f8211156115e6576115b78161149a565b6115c0846114ac565b810160208510156115cf578190505b6115e36115db856114ac565b830182611583565b50505b505050565b5f82821c905092915050565b5f6116065f19846008026115eb565b1980831691505092915050565b5f61161e83836115f7565b9150826002028217905092915050565b61163782610e11565b67ffffffffffffffff8111156116505761164f610a44565b5b61165a825461139a565b6116658282856115a5565b5f60209050601f831160018114611696575f8415611684578287015190505b61168e8582611613565b8655506116f5565b601f1984166116a48661149a565b5f5b828110156116cb578489015182556001820191506020850194506020810190506116a6565b868310156116e857848901516116e4601f8916826115f7565b8355505b6001600288020188555050505b505050505050565b7f4e487b71000000000000000000000000000000000000000000000000000000005f52601160045260245ffd5b5f611734826109fd565b91507fffffffffffffffffffffffffffffffffffffffffffffffffffffffffffffffff8203611766576117656116fd565b5b600182019050919050565b5f67ffffffffffffffff82111561178b5761178a610a44565b5b602082029050602081019050919050565b5f80fd5b5f815190506117ae81610b1b565b92915050565b5f67ffffffffffffffff82169050919050565b6117d0816117b4565b81146117da575f80fd5b50565b5f815190506117eb816117c7565b92915050565b5f606082840312156118065761180561179c565b5b6118106060610aa2565b90505f61181f848285016117a0565b5f830152506020611832848285016117dd565b6020830152506040611846848285016117dd565b60408301525092915050565b5f61186461185f84611771565b610aa2565b9050808382526020820190506060840283018581111561188757611886610ae7565b5b835b818110156118b0578061189c88826117f1565b845260208401935050606081019050611889565b5050509392505050565b5f82601f8301126118ce576118cd610a30565b5b81516118de848260208601611852565b91505092915050565b5f602082840312156118fc576118fb6109f5565b5b5f82015167ffffffffffffffff811115611919576119186109f9565b5b611925848285016118ba565b91505092915050565b5f611938826109fd565b9150611943836109fd565b925082820190508082111561195b5761195a6116fd565b5b9291505056fea264697066735822122056f8331df7f4b2b2958b342281ed0038918c508e9c91052ce62b83925812d40864736f6c63430008160033","linkReferences":{}},"methodIdentifiers":{"createPoll(string,string,uint256,uint256,uint256,address)":"f52dd56c","endPoll(uint256)":"f43b8778","oracle()":"7dc0d1d0","pollCount()":"9207891d","polls(uint256)":"ac2f0074","pushVotes(uint256,address[],uint256[])":"3ccc705d","read()":"57de26a4","tallies(uint256,uint256)":"d46615c3","votes(uint256)":"5df81330"},"id":0}